:100003007465737454455354313233340A00256490
:0D001300200A0000000000000000000000B6
:081C0100014B01016F00C10954
:101B3500E54B601830B70320B612E4F54B20B70427
:101B4500FE7F012220B60E7E007F022230B70630CE
:081B5500B603754B01E4FEFF2D
:011B5D002265
:101B850053877F53890F438920759850758DFD754F
:0B1B95008BFDC298D2AFD2ACD28E22E2
:0A1BF700C2998F993099FDC299221E
:101BB800120EBDFF600C121BF7740129F9E43AFA02
:031BC80080EE228A
:03002300021A16A8
:101A1600C0E0C0D075D018309823859970C298E57B
:101A260070640A600B744C256FF8A670056F800D04
:101A3600E570B40A08856F6E756F00D209D0D0D0F4
:021A4600E0328C
:1016FD00E4F522F523F52478257C00FD7BFF7A00A7
:10170D007916FE7F0A120E97D2B7D2B6121B85122A
:10171D001544121A4875330275340CE4FBFAFDFFBB
:10172D00121917121A48121B358F22EFFD3395E04F
:10173D00FCED64014C700B7BFF7A007903121BB832
:10174D008025ED64024C701F7532FF7533007534C2
:10175D0011852435FB7A0079251210487B007A001B
:10176D007925121BB805243009BC121A487B007A62
:10177D0000794C75340CE4FDFF12196B7E007F224D
:0F178D007D007B007A00794C120FC0C209809753
:100026000000000000000000002F00000000070094
:10003600070000147F147F1400242A7F2A1200620E
:1000460064081323003649552250000005030000BA
:1000560000001C224100000041221C000014083E42
:1000660008140008083E0808000000A06000000808
:10007600080808080000606000000020100804025C
:10008600003E5149453E0000427F4000004261511A
:100096004946002141454B31001814127F100027B4
:1000A60045454539003C4A49493000017109050377
:1000B60000364949493600064949291E00003636A8
:1000C600000000005636000000081422410000140B
:1000D60014141414000041221408000201510906E8
:1000E60000324959513E007C1211127C007F494969
:1000F6004936003E41414122007F4141221C007F9A
:1001060049494941007F09090901003E4149497AA7
:10011600007F0808087F0000417F41000020404121
:100126003F01007F08142241007F40404040007F8D
:10013600020C027F007F0408107F003E4141413ED1
:10014600007F09090906003E4151215E007F091919
:1001560029460046494949310001017F0101003F16
:100166004040403F001F2040201F003F4038403F96
:1001760000631408146300070870080700615149FA
:10018600454300007F41410000552A552A5500008D
:1001960041417F000004020102040040404040400B
:1001A600000001020400002054545478007F4844A3
:1001B600443800384444442000384444487F0038DA
:1001C6005454541800087E0901020018A4A4A47C03
:1001D600007F080404780000447D400000408084CD
:1001E6007D00007F102844000000417F4000007C15
:1001F60004180478007C0804047800384444443821
:1002060000FC242424180018242418FC007C08046C
:10021600040800485454542000043F444020003C45
:100226004040207C001C2040201C003C4030403CCC
:10023600004428102844001CA0A0A07C004464545C
:100246004C441414141414140000000000000000A0
:100256000000000000000000000000F800000000A0
:10026600000000333000000000100C06100C0600E1
:10027600000000000000000040C07840C078400048
:10028600043F04043F040400007088FC08300000AA
:10029600001820FF211E0000F008F000E018000002
:1002A60000211C031E211E0000F0088870000000BB
:1002B6001E2123241927211010160E00000000000D
:1002C6000000000000000000000000E0180402002A
:1002D600000000071820400000020418E00000009B
:1002E6000040201807000000404080F08040400099
:1002F6000202010F01020200000000F000000000EF
:100306000101011F010101000000000000000000C2
:1003160080B0700000000000000000000000000037
:1003260000010101010101010000000000000000C0
:10033600003030000000000000000000806018045B
:10034600006018060100000000E010080810E00038
:10035600000F102020100F00001010F80000000001
:100366000020203F20200000007008080888700048
:1003760000302824222130000030088888483000C8
:100386000018202020110E000000C02010F80000E8
:1003960000070424243F240000F808888808080081
:1003A6000019212020110E0000E010888818000096
:1003B600000F112020110E0000380808C838080068
:1003C6000000003F000000000070880808887000E8
:1003D600001C222121221C0000E010080810E00069
:1003E6000000312222110F00000000C0C0000000F2
:1003F6000000003030000000000000800000000017
:10040600000080600000000000008040201008000E
:1004160000010204081020004040404040404000D7
:1004260004040404040404000008102040800000B2
:100436000020100804020100007048080808F000B7
:100446000000003036010000C030C828E810E00087
:100456000718272423140B000000C038E000000012
:10046600203C23020227382008F88888887000007C
:10047600203F202020110E00C03008080808380050
:10048600071820202010080008F808080810E000C7
:10049600203F202020100F0008F88888E808100068
:1004A600203F20202320180008F88888E80810003C
:1004B600203F200003000000C03008080838000074
:1004C60007182020221E020008F808000008F80875
:1004D600203F210101213F20000808F808080000FC
:1004E6000020203F2020000000000808F80808002F
:1004F600C08080807F00000008F888C028180800A7
:10050600203F20012638200008F8080000000000DF
:10051600203F20202020300008F8F800F8F80800D6
:10052600203F003F003F200008F830C00008F808D0
:10053600203F200007183F00E01008080810E000E0
:100546000F10202020100F0008F808080808F000F7
:10055600203F210101010000E01008080810E0001A
:100566000F18242438504F0008F8888888887000AF
:10057600203F2000030C302000708808080838004F
:100586000038202121221C00180808F80808180045
:100596000000203F2000000008F808000008F808C6
:1005A600001F202020201F000878880000C8380877
:1005B600000007380E010000F80800F80008F800EF
:1005C600033C0700073C0300081868808068180889
:1005D60020302C03032C30200838C800C838080007
:1005E6000000203F2000000010080808C838080056
:1005F6002038262120201800000000FE02020200FA
:100606000000007F40404000000C30C000000000A9
:10061600000000010638C00000020202FE000000D1
:10062600004040407F000000000004020202040077
:1006360000000000000000000000000000000000B4
:10064600808080808080808000020204000000009C
:100656000000000000000000000080808080000094
:100666000019242222223F2008F800808000000082
:10067600003F112020110E00000000808080000045
:10068600000E112020201100000000808088F80054
:10069600000E112020103F20000080808080000086
:1006A600001F222222221300008080F088888818EA
:1006B6000020203F202000000000808080808000F5
:1006C600006B94949493600008F80080808000008A
:1006D600203F210000203F20008098980000000065
:1006E6000020203F20200000000000809898000095
:1006F60000C08080807F000008F8000080808000B5
:10070600203F24022D302000000808F800000000D9
:100716000020203F20200000808080808080800094
:10072600203F20003F20003F808000808080000026
:10073600203F210000203F200000808080800000B4
:10074600001F202020201F008080008080000000E5
:1007560080FFA12020110E00000000808080800014
:10076600000E112020A0FF80808080008080800005
:1007760020203F2120000100000080808080800032
:100786000033242424241900008080E080800000A7
:100796000000001F202000008080000000808000F4
:1007A600001F202020103F20808080000080808055
:1007B60000010E30080601008080008000808080E5
:1007C6000F300C030C300F0000808000808080000A
:1007D6000020312E0E312000808080000080808035
:1007E60080818E70180601000080808080808000E5
:1007F6000021302C2221300000000000807C020203
:1008060000000000003F404000000000FF00000024
:1008160000000000FF0000000002027C80000000D3
:100826000040403F000000000006010102020404EF
:080836000000000000000000BA
:101544007FAE121AF4E4FDFCFFFE121AF8121AF22E
:10155400E4FDFC7F40FE121AF8E4FDFC7FB0FE12AD
:101564001AF8E4FDFC7F81FE121AF8E4FDFC7FFF0B
:10157400FE121AF8E4FDFC7FA1FE121AF8E4FDFC49
:101584007FA6FE121AF8E4FDFC7FA8FE121AF8E406
:10159400FDFC7F3FFE121AF8E4FDFC7FC8FE121A20
:1015A400F8E4FDFC7FD3FE121AF8E4FDFCFFFE1202
:1015B4001AF8E4FDFC7FD5FE121AF8E4FDFC7F80E6
:1015C400FE121AF8E4FDFC7F05FE121AF8E4FDFC95
:1015D4007FD9FE121AF8E4FDFC7FF1FE121AF8E43A
:1015E400FDFC7FDAFE121AF8E4FDFC7F12FE121AEB
:1015F400F8E4FDFC7FDBFE121AF8E4FDFC7F30FE0C
:10160400121AF8E4FDFC7F8DFE121AF8E4FDFC7F4B
:0E16140014FE121AF8E4FDFC7FAFFE021AF875
:091C0A00D2A1D2A0C2A0C2A12205
:071C1300D2A1C2A0D2A02261
:0B1BCB00121AB3121BD6AF04121AB39B
:051BD600D2A1C2A12212
:071AAC00AC07121C0A7F7851
:101AB300C2A1E4FEEEC3940874809480501BAD076A
:101AC300530580ED64807004D2A08002C2A0EF258C
:091AD300E0FFD2A1C2A10E80DBEC
:011ADC0022E7
:0E1BDB00121AAC121BD6E4FF121BCB021C1315
:0E1BE900121AAC121BD67F40121BCB021C132B
:101ADD00EF24B0FFEE33FEE4FDFC121AF8E4FDFC3A
:0B1AED00FFFE121AF87F10E4FDFCFE63
:101AF800AB07AA06ED4C6003021BE9AF03121BDB20
:011B080022BA
:101B0900A907ED24B0FFE433FEE4FDFC121AF8E95D
:101B190054F0C4540F7E004410FFE4FDFC121AF87F
:0C1B2900E9540FFF7E00E4FDFC021AF8F6
:101A4800E4F9E9FF7E00C394087480948050221260
:101A58001ADDE4F52FC3E52F948074809480500E2E
:101A68007D017C00E4FFFE121AF8052F80E709804B
:011A7800D19C
:011A7900224A
:101A7A00E4F9E9FF7E00C39408748094805022122E
:101A8A001ADDE4F57CC3E57C941A74809480500EC8
:101A9A007D017C00E4FFFE121AF8057C80E70980CC
:011AAA00D16A
:011AAB002218
:0219AF008D7A2F
:1019B100A907E9FF7E00C394087480948050221225
:1019C1001ADD857A7BC3E57B948074809480500E08
:1019D1007D017C00E4FFFE121AF8057B80E7098097
:0119E100D134
:0119E20022E2
:1019E300E4F9E9FF7E00C3940874809480502312C5
:1019F3001ADDE4F57DC3E57D948074809480500FF7
:101A03007D017C007F017E00121AF8057D80E609C6
:021A130080D081
:011A150022AE
:041622008F3E8D3F2B
:10162600E4F542F9EB24E0F542D3EF947F7480941D
:10163600804007E4F53E053F053FE5416410707ABA
:10164600AD3FAF3E121B09E4F9E9C39408748094D8
:1016560080502975F010E542A429F582E435F0F5AD
:1016660083E582244EF582E5833402F583E493FF15
:101676007E007D017C00121AF80980CDE53F04FD4D
:10168600AF3E121B09E4F9E9C394087480948050B4
:101696006575F010E542A429F582E435F0F583E599
:1016A600822456F582E5833402F583E493FF7E00B7
:1016B6007D017C00121AF80980CDAD3FAF3E121BAA
:1016C60009E4F9E9C3940674809480502975F006FC
:1016D600E542A42426F582E5F03400F583E5822967
:1016E600F582E43583F583E493FF7E007D017C007B
:0616F600121AF80980CD74
:0116FC0022CB
:041BA0008F3EA905C6
:101BA4007F017E00AD0119ED6009AD3E7C00120F8E
:031BB4001580F1A8
:011BB700220B
:081828008F358D368A378B38AD
:10183000E4F53DF53BE53BC395395065C3E5399586
:101840003B14FD7F0A121BA0AC37AD38CFCDCFCEF5
:10185000CCCE120F277C007D0A120F278D3CE53D70
:101860007023E53914FFE53BC39F5019E53C701226
:10187000E53AC313853BF0A42535FF853A417B301B
:101880008016753D01E53AC313853BF0A42535FF6D
:10189000E53C2430FB853A41AD36121622053B80EB
:0118A00094B3
:0118A1002224
:101917008F2F8D308A318B32C3E5316480948040BC
:101927001B8534417B20121622E534C313252FFF74
:1019370085333985343AAB32AA3180228534417BED
:101947002DAD30AF2F121622E534C313252FFFC359
:10195700E49532FBE49531FA85333985343AAD3075
:041967001218282208
:04145B008F088D0960
:10145F00E4F511AF0DAE0CAD0BAC0A120B048E12EE
:10146F008F13AC12AD13E4120ACBA804A905AA0678
:10147F00AB07AF0DAE0CAD0BAC0A1208418F178E38
:10148F00168D158C14850E33851034AB13AA12AD3F
:10149F0009AF08121917E510C313FFE50E048FF0FB
:1014AF00A42508FF8510417B2EAD09121622E510E9
:1014BF00C313FFE50E24028FF0A42508F508E50FEE
:1014CF006072AF17AE16AD15AC14E4FBFA79207845
:1014DF00411209368F178E168D158C14120B048E30
:1014EF00128F13AF17AE16AD15AC14C004C005C0E4
:1014FF0006C007AC12AD13E4120ACBA804A905AAC3
:10150F0006AB07D007D006D005D0041208418F17BD
:10151F008E168D158C14E510C3138511F0A42508B4
:10152F00FFE5132430FB851041AD0912162205117A
:04153F00150F808A7A
:011543002285
:1018A2008F718D72E4FFFEFDFCAB76AA75A974A858
:1018B20073120A3C50318579417B2DAD72AF7112A2
:1018C2001622AF76AE75AD74AC73120AB58F768EF2
:1018D200758D748C73E579C3132571FF85760D8E32
:1018E2000C8D0B8C0A801F8579417B20AD72AF7104
:1018F200121622E579C3132571FF85760D85750CC5
:1019020085740B85730A85770E85780F857910ADFE
:051912007212145B22BB
:0A196B008F2F8D308B318A328933C3
:10197500E4F535AB31AA32A933853582758300127A
:101985000ED6FB6024853441AD30AF2F121622747C
:1019950008252FF52FD39478748094804007E4F5BB
:0919A5002F05300530053580CA1C
:0119AE002216
:10083E00020B70E86480F8E933E83360110460F06D
:10084E00ED33EC337009E8FCE9FDEAFEEBFF220420
:10085E0060DED3EB9FEA9EE99DE8C2E78CF0C2F71B
:10086E0095F0400CE8CCF8E9CDF9EACEFAEBCFFBE7
:10087E00120B3B85D0F05804700320D5B3E80470FA
:10088E00075002B2D5020B7A92D5EC0460F7E4CC95
:10089E00C0E0C398F8603B94186008400DD0E0FBB0
:1008AE00020B52E4FBFAC9FC8028E830E406E4C9E6
:1008BE00FBE4CAFCE830E305E4C9CACBFCE8540704
:1008CE006010F8C3E913F9EA13FAEB13FBEC13FC0F
:1008DE00D8F130F52FC3E49CFCEF9BFFEE9AFEEDB2
:1008EE0099FDD0E0FBEF4E4D4C701222DB03020B54
:1008FE0077EC2CFCEF33FFEE33FEED33FDED30E7FE
:10090E00EB020B52EF2BFFEE3AFEED39FDD0E0FB82
:10091E0050130BBB0003020B7AED13FDEE13FEEF2B
:08092E0013FFEC13FC020B5255
:10093600EC4D6011E8497017ED33EC3304600DE4BB
:10094600FCFFFEFD22E933E8330470F8020B701257
:100956000B3B58046009E4CC248150062850090258
:100966000B7A284003020B77C0E0EB4A7044B9804B
:1009760006D0E0FB020B66EF4E701CBD8008EBFF55
:10098600EAFEE9FD80EBE98DF0A4FEE5F0020A1F20
:10099600E9CDF9EAFEEBFFEF89F0A4FCE5F0CE899C
:1009A600F0A42EFFE435F0CD89F0A42DFEE435F059
:1009B6008067EF4E7005BD80D780C3EF8BF0A4AC87
:1009C600F0EE8BF0A42CFCE435F0F8EF8AF0A42CC2
:1009D600E5F038FCE433CB8DF0A42CFCE5F03BF8D5
:1009E600EE8AF0A42CFCE5F038F8E433CF89F0A4C5
:1009F6002CFCE5F038CF3400CE89F0A42FFFE5F0CB
:100A06003EFEE433C98DF0A42EFEE5F039CD8AF022
:100A1600A42FFFE5F03EFEE43DFD33D0E0FB50079A
:100A26000BBB000F020B7AEC2CFCEF33FFEE33FE10
:060A3600ED33FD020B523E
:100A3C0074F8CC6480CCC86480C8F58204604FC361
:100A4C00EB9FF5F0EA9E42F0E99D42F0E89C45F000
:100A5C00603C501DE5825FFFE582D313CB5BCBF48A
:100A6C002B5582FB50280ABA002409B900200880B3
:100A7C001DE5825BFBE582D313CF5FCFF4C3132F4D
:100A8C005582FF50090EBE00050DBD00010CC3EBD5
:100A9C009FF5F0EA9E42F0E99D42F0E89C45F0603B
:090AAC0007CC4820E701B3EC225D
:100AB500ED33EC33600A047003BD8004ECB2E7FC4F
:010AC500220E
:100AC60075F020800E75F010800575F0087D007EAB
:100AD600007F003392D530D503120F7CEC334010E3
:100AE600EF33FFEE33FEED33FDEC33FCD5F0ED22B4
:0E0AF600E5F0247EA2D513CC92E7CDCEFF22F0
:100B0400EDD2E7CD33EC3392D524814006E4FFFEE9
:100B1400FDFC22FCE4CFCECDCC24E0501174FF8048
:100B2400EDC3CC13CCCD13CDCE13CECF13CF0470E5
:070B3400F030D5DE020F7C5A
:100FEC00E5462432F8E6054622782F30070278329F
:100FFC00E475F001120F8A020EBD2000EB7F2ED299
:10100C00008018EF540F2490D43440D4FF30040BDC
:10101C00EF24BFB41A0050032461FFE547600215AA
:10102C0047054AE54A7002054930070D782FE475EB
:10103C00F001120F8AEF020F03021B5E7403D2073A
:10104C008003E4C207F5468B2F8A308931E4F547DB
:10105C00F549F54AE54760077F2012102780F575A2
:10106C0048FFC201C200C202C203C205C206C208C6
:10107C00120FF5FF700D3007057F00121038AF4AC4
:10108C00AE4922B4255FC2D5C204120FF5FF24D09D
:10109C00B40A00501A75F00A784730D50508B6FF27
:1010AC000106C6A426F620D5047002D20380D924EA
:1010BC00CFB41A00EF5004C2E5D204021325D201BA
:1010CC0080C6D20080C0D20280BCD2D580BAD205F4
:1010DC0080B47F201210272002077401B54700400E
:1010EC00F1120FECFF121027021060D208D206800A
:1010FC0095120FECFB120FECFA120FECF94A4B7035
:10110C0006791C7A147BFF20022EE547602A7E00AC
:10111C008E82758300120ED660060EEE654870F056
:10112C00C2D5EBC0E0EAC0E0E9C0E0EE121385D016
:10113C00E0F9D0E0FAD0E0FB120EBDFF60AAEBC0E4
:10114C00E0EAC0E0E9C0E0121027D0E02401F9D0B9
:10115C00E03400FAD0E0FBE5480460DCD548D980E7
:10116C0087D20280A212136860F7E548700104125E
:10117C000B85A948600DE548600914F54812140F59
:10118C00EF60F3EA30E702F404C3995077EAF425F0
:10119C00480430E701E404F548800D12136860C17F
:1011AC00EA05482548120B85EA7845F630E701E454
:1011BC00254804D5480420050114121385E4C0E029
:1011CC0012140F7845E6601320E70714F612100F7F
:1011DC00802204F6D0E014C0E07F0012100FE54826
:1011EC0060071210061548800B300503121006D04C
:1011FC00E0021060D0E00480C512136860A0E548DE
:10120C0004120B857845EAF6E548200502600104D6
:05121C002404121385FB
:1012210074FF04C0E012140F12100FE548200502EC
:101231006003121006D0E0B548E87F451210197816
:1012410045E67F2B30E7047F2DF404C0E012102720
:10125100D0E075F00A84C0F0121010D0E012101026
:10126100021060791080027908C206C2088008D293
:10127100D5790A8004790AC2D5E548047002F54897
:10128100E4FAFDFEFF120FECFC7B08200113120FA4
:10129100ECFD7B1030000A120FECFE120FECFF7B0D
:1012A10020EC3382D592D55013C3E43000069FFF62
:1012B100E49EFEE42001039DFDE49CFCE4CBF8C226
:1012C10001EC700CCFCECDCCE824F8F870F3801788
:1012D100C3EF33FFEE33FEED33FDEC33FCEB33FBB9
:1012E100994002FB0FD8E9EB300105F8D0E0C44882
:1012F100B201C0E00AEC4D4E4F78207B0070C2EA8B
:10130100B5480040BCC0E0121387D0F0D0E0200106
:1013110004C4C0E0C4B201C0F0121010D0F0D5F086
:10132100EB021060120F9A10FD5312645810CE4C4C
:1013310010CA4212684F12704412704910E34312EE
:10134100765511A746120545117147143C5010D22C
:101351002D10D62E10F92B10DA2310F72014252A80
:10136100109248000010F1E548B4FF0375480612D9
:101371000FECFC120FECFD120FECFE120FECFF78DC
:101381003E020BB4790AA2D5200314300509B91025
:10139100020404B9080104A2D52006025001042068
:1013A10002689202B547005034C0E07F2030031933
:1013B1007F30A20272067205500F1213DEC202C202
:1013C10006C205C2087F30800F300503E9C0E01274
:1013D1001027300503D0E0F9D0E0B547CC30051730
:1013E1007F30B9100C1210277F583004077F7880A6
:1013F10003B908031210273002057F2D0210277F41
:10140100202008F87F2B2006F322920280CF7F0054
:10141100B407005005243EF8E6FF22286E756C6C77
:101421002900D201120FEC3001F8C201784730D502
:101431000108F60210922D50434958120FEC240373
:10144100B405004001E490143793121018743A1255
:0A1451001018D2037547040212645C
:100B3B00E9D2E7C933E833F892D5EDD2E7CD33EC00
:070B4B0033FC5002B2D52279
:100B5200EC30E7100FBF000C0EBE00080DBD000404
:100B62000BEB6014A2D5EB13FCED92E7FD2274FFB0
:100B7200FCFDFEFF22E480F8A2D574FF13FC7D8009
:030B8200E480EF1D
:100B8500F920E72824F950037907E4F42402FB1837
:100B9500DBFDE624FB5014E9600DE4F618E604F6E7
:0F0BA500B40A08E4F6D9F57401F60A22C2D52283
:100BB400ED33EC3392D5FA602AB4FF33EDC2E77B10
:100BC400FF60067A0B79D9E4227A0B79E220D50406
:100BD4007A0B79DD224E614E002B494E46002D4999
:100BE4004E4600E47A08F608DAFC7B00740722E833
:100BF400C0E0ECC0E0EDC0E0EEC0E0EFC0E0EA75BC
:100C0400F010A4CAABF075F04DA42BFBE435F0FC56
:100C1400EA2410FAEB34C5FBEC34D9FCEDC2E7FF4F
:100C240075F056A4F42411C5F0F434C58FF0A42A49
:100C3400E5F03BE43CF620E714120D87D0E0FFD04A
:100C4400E0FED0E0FDD0E0FC120CBA8014F40412F3
:100C54000D87D0E0FFD0E0FED0E0FDD0E0FC12092B
:100C640036D0E0F8E6FAEDD2E7CD33EC332482FB5C
:100C7400E4C3CF33CFCE33CECD33CD33DBF37B07D9
:100C840075F00A846004F6081B0AE5F0F6088FF094
:100C9400740AA4FFACF08EF0740AA42CFEACF050DD
:100CA400010C8DF0740AA42CFDE435F0F608DBDEAB
:030CB400740722A0
:100CB700020B7AEC5D046005E859047003020B70BF
:100CC700120B3B580460F6EC4860F2EC7004FDFE32
:100CD700FF22C860DB2481C85009C3986002500610
:100CE700020B779850CAF582E9294B4A7005AB8207
:100CF700020B6675F0007C1A7880C3EF9BEE9AEDC5
:100D070099400DC3EF9BFFEE9AFEED99FDE842F087
:100D1700DC23ACF0D0E0FFD0E0FED0E0FDAB8220DA
:100D2700E7101BEB60BAEC2CFCEF33FFEE33FEED64
:100D370033FD020B52E803F830E705C0F075F00009
:100D4700EF2FFFEE33FEED33FD40B830E7C280AA48
:100D57003F8000004120000042C80000447A0000A4
:100D6700461C400047C35000497424004B18968026
:100D77004CBEBC205A0E1BCA6753C21C749DC5AE1D
:100D8700FB60065407601C2323120DB5EB54386033
:100D970009120DA1120DB0120936ECF8EDF9EEFAB1
:100DA700EFCB22EB120DB080F1543803241C900DC9
:100DB70057FE93FC0EEE93FD0EEE930ECE93FF229D
:0300000002179C48
:0C179C00787FE4F6D8FD75817D0217E32C
:100DC700E709F608DFFA8046E709F208DFFA803E0E
:100DD70088828C83E709F0A3DFFA8032E309F608FB
:100DE700DFFA8078E309F208DFFA807088828C8363
:100DF700E309F0A3DFFA806489828A83E0A3F60817
:100E0700DFFA805889828A83E0A3F208DFFA804CF0
:100E170080D280FA80C680D4806980F280338010C7
:100E270080A680EA809A80A880DA80E280CA803330
:100E370089828A83ECFAE493A3C8C582C8CCC583A8
:100E4700CCF0A3C8C582C8CCC583CCDFE9DEE78078
:100E57000D89828A83E493A3F608DFF9ECFAA9F0F7
:100E6700EDFB2289828A83ECFAE0A3C8C582C8CC4D
:100E7700C583CCF0A3C8C582C8CCC583CCDFEADE66
:100E8700E880DB89828A83E493A3F208DFF980CCC8
:100E970088F0EF60010E4E60C388F0ED2402B404C1
:100EA7000050B9F582EB2402B4040050AF23234568
:060EB7008223900E177368
:100EBD00BB010689828A83E0225002E722BBFE0233
:090ECD00E32289828A83E4932266
:100ED600BB010CE58229F582E5833AF583E02250D1
:100EE60006E92582F8E622BBFE06E92582F8E2221B
:0D0EF600E58229F582E5833AF583E4932235
:100F0300BB010689828A83F0225002F722BBFE01CD
:020F1300F322C7
:100F1500EF8DF0A4A8F0CF8CF0A428CE8DF0A42EF0
:020F2500FE22AA
:100F2700BC000BBE0029EF8DF084FFADF022E4CCAE
:100F3700F875F008EF2FFFEE33FEEC33FCEE9DEC77
:100F4700984005FCEE9DFE0FD5F0E9E4CEFD22EDBD
:100F5700F8F5F0EE8420D21CFEADF075F008EF2F07
:100F6700FFED33FD4007985006D5F0F222C398FDF8
:050F77000FD5F0EA2295
:0E0F7C00C3E49FFFE49EFEE49DFDE49CFC2286
:100F8A00FAE6FB0808E6F925F0F618E6CA3AF62268
:100F9A00D083D082F8E4937012740193700DA3A3E6
:100FAA0093F8740193F5828883E4737402936860FA
:060FBA00EFA3A3A380DFFA
:101B5E00EFB40A07740D121B69740A309811A89914
:101B6E00B8130CC2983098FDA899C298B811F630E7
:071B7E0099FDC299F59922BF
:100FC000EF4E6012EF60010EEDBB010B89828A8348
:100FD000F0A3DFFCDEFA2289F05007F709DFFCA955
:0C0FE000F022BBFEFCF309DFFCA9F022AC
:1017A8000216FDE493A3F8E493A34003F68001F244
:1017B80008DFF48029E493A3F85407240CC8C33342
:1017C800C4540F4420C8834004F456800146F6DF11
:1017D800E4800B0102040810204080901C01E47E84
:1017E800019360BCA3FF543F30E509541FFEE49306
:1017F800A360010ECF54C025E060A840B8E493A3CD
:10180800FAE493A3F8E493A3C8C582C8CAC583CAF7
:10181800F0A3C8C582C8CAC583CADFE9DEE780BEAF
:011C090000DA
:00000001FF
